:020000040000FA
:0400000080312628FD
:100008007E1480318B1E09280A2812280B1D0D2802
:100018000E28122884311624803124280B1F152815
:10002800162824282100131E1A281B2824282000FB
:10003800131E1F2820282428843151248031242885
:100048007E10090080312828F6308400823085002F
:10005800A03086000030870040308431A5248031EC
:10006800F001F101F201F301F401F50120308400FF
:100078000030850024308431AB2480317E1020008C
:100088008331362B20003F08A03E860087010108F7
:10009800C9002A0849060319522853285428B829A0
:1000A800BE01BF1E582859285C2822008C155E28DE
:1000B80022008C112000BF1A622863287928BF19F2
:1000C8006628672879283F196A286B2879283F1AF3
:1000D8006E286F28792822000C1000302000C400F8
:1000E800C5008331E1238031A729BF1A7C287D28E8
:1000F8009428BF198028812894283F1984288528A6
:1001080094283F1E88288928942822000C10C7307C
:100118002000C4000030C5008331E1238031A729C5
:10012800BF1A97289828A728BF199B289C28A72872
:100138003F1D9F28A028A7283F1AA328A428A7283E
:1001480022000C147128BF1AAA28AB28BA28BF1994
:10015800AE28AF28BA283F1DB228B328BA283F1EB8
:10016800B628B728BA2822000C108B28BF1ABD2839
:10017800BE28D528BF1DC128C228D5283F19C528A3
:10018800C628D5283F1AC928CA28D52822000C1005
:10019800F3302000C4000130C5008331E1238031F1
:1001A800A729BF1AD828D928E828BF1DDC28DD28A8
:1001B800E8283F19E028E128E8283F1EE428E52838
:1001C800E82822000C10CC28BF1AEB28EC28FB28C2
:1001D800BF1DEF28F028FB283F1DF328F428FB2833
:1001E8003F1AF728F828FB2822000C14CC28BF1A3D
:1001F800FE28FF280E29BF1D022903290E293F1DAD
:10020800062907290E293F1E0A290B290E29220033
:100218000C14CC28BF1E112912292129BF19152910
:10022800162921293F1919291A2921293F1A1D2977
:100238001E29212922000C107128BF1E24292529D6
:100248003429BF192829292934293F192C292D296E
:1002580034293F1E30293129342922000C108B28DB
:10026800BF1E372938294829BF193B293C29482965
:100278003F1D3F29402948293F1A43294429482935
:1002880022008C150C107128BF1E4B294C295B29A4
:10029800BF194F2950295B293F1D532954295B2930
:1002A8003F1E572958295B2922000C108B28BF1E96
:1002B8005E295F296E29BF1D622963296E293F19AE
:1002C800662967296E293F1A6A296B296E29220037
:1002D8000C10CC28BF1E712972298129BF1D7529D0
:1002E800762981293F1979297A2981293F1E7D2973
:1002F8007E29812922000C10CC28BF1E842985293B
:100308009429BF1D8829892994293F1D8C298D2965
:1003180094293F1A90299129942922000C14CC2859
:10032800BF1E97299829A729BF1D9B299C29A72962
:100338003F1D9F29A029A7293F1EA329A429A72932
:1003480022000C14CC282000CA014A08203E86004E
:10035800870181010130C8004808CA070B304A02EA
:10036800031CB729B829A929080004302600130658
:10037800031DBF29C029562A7708F1007608F00026
:100388000530930020003903031DCB29CC29842A8A
:10039800B9012C087102031DD3292B087002031C14
:1003A800D629D729DE292B087002AD002C08713B0D
:1003B800AE00EA292C08F9002B08F800F809F90919
:1003C80070087807AD007108793DAE003008F90073
:1003D8002F08F800F936F80CF936F80CF936F80C4D
:1003E8007808BB002E08F9002D08F800F936F80C3B
:1003F800F936F80CF936F80C7808F20072083B0266
:100408000318072A082A0C2A3B087202BA000F2A86
:1004180072083B02BA003808031D132A142A232A3B
:1004280022000E16103020003A0203181C2A1D2A3A
:10043800842AB801B80AB70122000E12842A1030A3
:100448003A020318282A292A392A22000E120130D2
:10045800F8002000370A312AF835890B302A780845
:10046800FF3AF9007908F405472A22000E160130F0
:10047800F8002000370A412AF835890B402A780805
:10048800F9007908F4040130F8007808B707083053
:100498003702031C502A512A552AB8010130C300DB
:1004A800842A842A05301306031D5B2A5C2A842AC1
:1004B80077082000AC007608AB00043026009300D3
:1004C800710820002C02031D6B2A70082B02031CE4
:1004D8006E2A6F2A762A70082B02AF0071082C3B0F
:1004E800B000822A7108F9007008F800F809F909C3
:1004F8002B087807AF002C08793DB000B901B90A7C
:10050800080020004303031D8A2A8B2AF52AC30109
:10051800D22AC8307406031D922A932A982AC10148
:10052800C10A7408A000F52AC101F52A8B307406A7
:10053800031D9F2AA02A982A7408A1000230C1002E
:10054800F52A7408A2000330C100F52A7408A30034
:100558000430C100F52A7408A4000530C100F52A4A
:100568007408A5000630C100F52A7408A6000730F3
:10057800C100F52A7408A7000830C100F52A7408DC
:10058800A8000930C100F52A7408A9000A30C10082
:10059800F52A7408AA00C201C20A982A4108003A3A
:1005A80003198D2A013A03199A2A033A0319A52A2D
:1005B800013A0319AA2A073A0319AF2A013A03197B
:1005C800B42A033A0319B92A013A0319BE2A0F3A81
:1005D8000319C32A013A0319C82A033A0319CD2A71
:1005E800982A08004C349F34ED3462349A3400342D
:1005F8000034003427340034003400347334A03419
:10060800713401348E345D342F34FC346734003453
:1006180000340034DA34003400340034B134A03407
:10062800713401342D34FE348C345F342C3400346E
:10063800003400343834EB3499344A341234C13439
:10064800B3346034EF343C344E349D34D134003408
:10065800003400346C34003400340034D0340334B3
:100668007134A2348331FD23833142302000C40029
:100678000430C5008431B12483318B170B17003047
:100688002000C400C5008331E123833122000C100F
:100698008231852283318331742383318331A523C9
:1006A800833120003C08031D5A2B5B2B662B3D032E
:1006B800031D5F2B602B622BBD014C2B8031462024
:1006C80083314C2BBC01F330C4000130C5008331A9
:1006D800E123833122000C108C154C2B8031262805
:1006E80020002208F3002308C000BF01731D7D2BE2
:1006F8007E2B802BBF16812BBF12F31D842B852BDD
:10070800872B3F16882B3F12731E8B2B8C2B8E2B1F
:10071800BF158F2BBF11F31E922B932B952B3F15D3
:10072800962B3F11C01E992B9A2B9C2BBF149D2BE7
:10073800BF10401FA02BA12BA32B3F14A42B3F10AD
:100748000800063020002206031DAB2BAC2BC22B61
:10075800D5302A06031DB12BB22BC22B22008C15D3
:100768002000BD01BD0A0030C400C5008331E1236B
:10077800833122000C102000BE01C32BBD010800EC
:100788002200900101308C008D0110308E0008305D
:1007980021009000F6308C00FF308D00FD308E0077
:1007A8003F3023008D003F308C00240090018D01E4
:1007B8002100951722009D01080020004508C70068
:1007C8004408C600C736C60CC736C60C46082500FE
:1007D8009800200044080339C6000430C635890B48
:1007E800F22B25001A08CF392000460425009A006C
:1007F80008008331C42383318431872483318431D1
:10080800B724833184316D24833184319324833137
:1008180084319D24833184316024833184312E24B2
:10082800833108000B117508200095000130B107CD
:100838000030B23D003032020A3003193102031C85
:10084800262C272C2D2C84317A2484312000B101C8
:10085800B201080021001508C03914389500063087
:10086800200095000630F5000B118B16BB30C40034
:100878000430C5008431B124843108000130F60009
:1008880076082000BE07C8303E02031C4C2C4D2CB5
:10089800502CBC01BC0ABE0108002000131226001F
:1008A8001108FA001208FB007B08F7007A08F60026
:1008B8008131B92184310800103020009900970156
:1008C800960111101708B6001608B50001309800F7
:1008D80008000C3025009A009C0180309B000130F4
:1008E8009D0099019801F3309E0508002000330807
:1008F80034040319802C812C862C34088A00330890
:100908000A00843108007030210099009801220003
:10091800960121001A1F912C922C8D2C080005306D
:100928002600930092019101200013122100131652
:1009380008007C3020009B009A01911007309C0031
:100948000800FE0012001E00FE0BA62C00346400F6
:1009580080010131890BAC2C003420004508B4001B
:100968004408B3000800163021009700080008006A
:020000040001F9
:04000E00C43FFF1FCD
:00000001FF
