:020000040000FA
:0400000080312628FD
:100008007E1480318B1E09280A2812280B1D0D2802
:100018000E28122884311B24803124280B1F152810
:10002800162824282100131E1A281B2824282000FB
:10003800131E1F2820282428843156248031242880
:100048007E10090080312828FB308400823085002A
:10005800A03086000030870040308431AA248031E7
:10006800F001F101F201F301F401F50120308400FF
:100078000030850024308431B02480317E10200087
:1000880083313B2B20003F08A03E860087010108F2
:10009800C9002A0849060319522853285428BD299B
:1000A800BE01BF1A582859287028BF195C285D2836
:1000B80070283F196028612870283F1A642865282D
:1000C800702822008C110C1000302000C400C500DC
:1000D8008331E6238031AC29BF1A732874288C2811
:1000E800BF19772878288C283F197B287C288C28EA
:1000F8003F1E7F2880288C2822008C110C10C730C6
:100108002000C4000030C5008331E6238031AC29CB
:10011800BF1A8F289028A028BF1993289428A028B0
:100128003F1D97289828A0283F1A9B289C28A0287C
:1001380022008C110C146828BF1AA328A428B428FC
:10014800BF19A728A828B4283F1DAB28AC28B42875
:100158003F1EAF28B028B42822008C110C10832829
:10016800BF1AB728B828D028BF1DBB28BC28D0285C
:100178003F19BF28C028D0283F1AC328C428D02830
:1001880022008C110C10F3302000C4000130C5008F
:100198008331E6238031AC29BF1AD328D428E42838
:1001A800BF1DD728D828E4283F19DB28DC28E428F5
:1001B8003F1EDF28E028E42822008C110C10C728F5
:1001C800BF1AE728E828F828BF1DEB28EC28F828EC
:1001D8003F1DEF28F028F8283F1AF328F428F828BC
:1001E80022008C110C14C728BF1AFB28FC280C29E4
:1001F800BF1DFF2800290C293F1D032904290C29AC
:100208003F1E072908290C2922008C110C14C72825
:10021800BF1E0F2910292029BF19132914292029A5
:100228003F191729182920293F1A1B291C29202979
:1002380022008C150C106828BF1E23292429342974
:10024800BF192729282934293F192B292C29342972
:100258003F1E2F293029342922008C150C108328A1
:10026800BF1E372938294829BF193B293C29482965
:100278003F1D3F29402948293F1A43294429482935
:1002880022008C150C106828BF1E4B294C295C29AC
:10029800BF194F2950295C293F1D532954295C292E
:1002A8003F1E572958295C2922008C150C108328D9
:1002B800BF1E5F2960297029BF1D63296429702921
:1002C8003F196729682970293F1A6B296C297029F9
:1002D80022008C150C10C728BF1E73297429842985
:1002E800BF1D7729782984293F197B297C298429EE
:1002F8003F1E7F298029842922008C150C10C728CD
:10030800BF1E872988299829BF1D8B298C299829E0
:100318003F1D8F29902998293F1A932994299829B4
:1003280022008C150C14C728BF1E9B299C29AC29B8
:10033800BF1D9F29A029AC293F1DA329A429AC29A9
:100348003F1EA729A829AC2922008C150C14C72800
:100358002000CA014A08203E860087018101013039
:10036800C8004808CA070B304A02031CBC29BD292B
:10037800AE290800043026001306031DC429C52928
:100388005B2A7708F1007608F0000530930020001A
:100398003903031DD029D129892AB9012C087102F2
:1003A800031DD8292B087002031CDB29DC29E3294B
:1003B8002B087002AD002C08713BAE00EF292C0809
:1003C800F9002B08F800F809F90970087807AD005A
:1003D8007108793DAE003008F9002F08F800F936A9
:1003E800F80CF936F80CF936F80C7808BB002E082A
:1003F800F9002D08F800F936F80CF936F80CF9363A
:10040800F80C7808F20072083B0203180C2A0D2A2F
:10041800112A3B087202BA00142A72083B02BA0079
:100428003808031D182A192A282A22000E16103007
:1004380020003A020318212A222A892AB801B80A78
:10044800B70122000E12892A10303A0203182D2A09
:100458002E2A3E2A22000E120130F8002000370A08
:10046800362AF835890B352A7808FF3AF9007908D1
:10047800F4054C2A22000E160130F8002000370A35
:10048800462AF835890B452A7808F9007908F404D2
:100498000130F8007808B70708303702031C552ADE
:1004A800562A5A2AB8010130C300892A892A0530F8
:1004B8001306031D602A612A892A77082000AC00E8
:1004C8007608AB00043026009300710820002C0247
:1004D800031D702A70082B02031C732A742A7B2AB6
:1004E80070082B02AF0071082C3BB000872A7108F6
:1004F800F9007008F800F809F9092B087807AF0027
:100508002C08793DB000B901B90A0800200043035E
:10051800031D8F2A902AFA2AC301D72AC8307406E5
:10052800031D972A982A9D2AC101C10A7408A000B0
:10053800FA2AC101FA2A8B307406031DA42AA52AB7
:100548009D2A7408A1000230C100FA2A7408A2008A
:100558000330C100FA2A7408A3000430C100FA2A43
:100568007408A4000530C100FA2A7408A5000630F2
:10057800C100FA2A7408A6000730C100FA2A7408D4
:10058800A7000830C100FA2A7408A8000930C10081
:10059800FA2A7408A9000A30C100FA2A7408AA00C5
:1005A800C201C20A9D2A4108003A0319922A013A57
:1005B80003199F2A033A0319AA2A013A0319AF2AF1
:1005C800073A0319B42A013A0319B92A033A031955
:1005D800BE2A013A0319C32A0F3A0319C82A013A55
:1005E8000319CD2A033A0319D22A9D2A08004C344C
:1005F8009F34ED3462349A340034003400342734A4
:100608000034003400347334A034713401348E342F
:100618005D342F34FC346734003400340034DA3469
:10062800003400340034B134A034713401342D3432
:10063800FE348C345F342C340034003400343834C5
:10064800EB3499344A341234C134B3346034EF345F
:100658003C344E349D34D1340034003400346C348E
:10066800003400340034D03403347134A23484317B
:100678000224833147302000C4000430C50084318F
:10068800B62483318B170B1700302000C400C50037
:100698008331E623833122000C1082318A22833190
:1006A8008331792383318331AA23833120003C08A5
:1006B800031D5F2B602B6B2B3D03031D642B652BE8
:1006C800672BBD01512B803146208331512BBC0152
:1006D800F330C4000130C5008331E62383312200A2
:1006E8000C108C15512B8031262820002208F3008D
:1006F8002308C000BF01731D822B832B852BBF16D7
:10070800862BBF12F31D892B8A2B8C2B3F168D2B22
:100718003F12731E902B912B932BBF15942BBF1157
:10072800F31E972B982B9A2B3F159B2B3F11C01E1E
:100738009E2B9F2BA12BBF14A22BBF10401FA52BB4
:10074800A62BA82B3F14A92B3F1008000630200029
:100758002206031DB02BB12BC72BD5302A06031D4B
:10076800B62BB72BC72B22008C152000BD01BD0A64
:100778000030C400C5008331E623833122000C1009
:100788002000BE01C82BBD010800220090010130E5
:100798008C008D0110308E00083021009000F6305A
:1007A8008C00FF308D00FD308E003F3023008D001F
:1007B8003F308C00240090018D0121009517220004
:1007C8009D01080020004508C7004408C600C73638
:1007D800C60CC736C60C46082500980020004408F9
:1007E8000339C6000430C635890BF72B25001A08D3
:1007F800CF392000460425009A0008008331C92318
:10080800843184318C2484318431BC248431843112
:10081800722484318431982484318431A22484312F
:1008280084316524843184313324843108000B11E8
:100838007508200095000130B1070030B23D003046
:1008480032020A3003193102031C2B2C2C2C322CB7
:1008580084317F2484312000B101B20108002100D5
:100868001508C03914389500063020009500063068
:10087800F5000B118B16C030C4000430C50084315C
:10088800B624843108000130F60076082000BE073F
:10089800C8303E02031C512C522C552CBC01BC0AFA
:1008A800BE0108002000131226001108FA001208E1
:1008B800FB007B08F7007A08F6008131BE218431FD
:1008C80008001030200099009701960111101708B0
:1008D800B6001608B5000130980008000C30250055
:1008E8009A009C0180309B0001309D00990198017D
:1008F800F3309E0508002000330834040319852CC2
:10090800862C8B2C34088A0033080A0084310800AE
:1009180070302100990098012200960121001A1FC9
:10092800962C972C922C08000530260093009201F3
:100938009101200013122100131608007C302000BA
:100948009B009A01911007309C000800FE001200DD
:100958001E00FE0BAB2C0034640080010131890BB2
:10096800B12C003420004508B4004408B300080046
:0A0978001630210097000800080067
:020000040001F9
:04000E00C43FFF1FCD
:00000001FF
